{
  "contractName": "InsEmployeeVest",
  "abi": [
    {
      "inputs": [
        {
          "internalType": "uint256",
          "name": "_ntoken",
          "type": "uint256"
        },
        {
          "internalType": "uint256",
          "name": "_daysToVest",
          "type": "uint256"
        }
      ],
      "stateMutability": "nonpayable",
      "type": "constructor"
    },
    {
      "anonymous": false,
      "inputs": [
        {
          "indexed": true,
          "internalType": "address",
          "name": "employeeAddr",
          "type": "address"
        },
        {
          "indexed": false,
          "internalType": "bool",
          "name": "isVested",
          "type": "bool"
        }
      ],
      "name": "EmployeeFullyVested",
      "type": "event"
    },
    {
      "anonymous": false,
      "inputs": [
        {
          "indexed": true,
          "internalType": "address",
          "name": "employeeAddr",
          "type": "address"
        },
        {
          "indexed": false,
          "internalType": "string",
          "name": "name",
          "type": "string"
        },
        {
          "indexed": false,
          "internalType": "uint256",
          "name": "startDate",
          "type": "uint256"
        }
      ],
      "name": "EmployeeRegistered",
      "type": "event"
    },
    {
      "anonymous": false,
      "inputs": [
        {
          "indexed": true,
          "internalType": "address",
          "name": "employeeAddr",
          "type": "address"
        },
        {
          "indexed": false,
          "internalType": "bool",
          "name": "isVested",
          "type": "bool"
        }
      ],
      "name": "EmployeeSeparated",
      "type": "event"
    },
    {
      "inputs": [],
      "name": "GetDaysToVest",
      "outputs": [
        {
          "internalType": "uint256",
          "name": "",
          "type": "uint256"
        }
      ],
      "stateMutability": "view",
      "type": "function"
    },
    {
      "inputs": [
        {
          "internalType": "address",
          "name": "_acct",
          "type": "address"
        },
        {
          "internalType": "string",
          "name": "_name",
          "type": "string"
        },
        {
          "internalType": "uint256",
          "name": "_tvest",
          "type": "uint256"
        }
      ],
      "name": "StartVest",
      "outputs": [
        {
          "internalType": "bool",
          "name": "",
          "type": "bool"
        }
      ],
      "stateMutability": "nonpayable",
      "type": "function"
    },
    {
      "inputs": [
        {
          "internalType": "address",
          "name": "_acct",
          "type": "address"
        },
        {
          "internalType": "string",
          "name": "_name",
          "type": "string"
        },
        {
          "internalType": "uint256",
          "name": "_tvest",
          "type": "uint256"
        },
        {
          "internalType": "uint256",
          "name": "_startDate",
          "type": "uint256"
        }
      ],
      "name": "StartVestDate",
      "outputs": [
        {
          "internalType": "bool",
          "name": "",
          "type": "bool"
        }
      ],
      "stateMutability": "nonpayable",
      "type": "function"
    },
    {
      "inputs": [
        {
          "internalType": "address",
          "name": "_acct",
          "type": "address"
        }
      ],
      "name": "SetEmployeeVested",
      "outputs": [
        {
          "internalType": "bool",
          "name": "",
          "type": "bool"
        }
      ],
      "stateMutability": "nonpayable",
      "type": "function"
    },
    {
      "inputs": [
        {
          "internalType": "address",
          "name": "_acct",
          "type": "address"
        }
      ],
      "name": "EmployeeSeparation",
      "outputs": [
        {
          "internalType": "bool",
          "name": "",
          "type": "bool"
        }
      ],
      "stateMutability": "nonpayable",
      "type": "function"
    },
    {
      "inputs": [
        {
          "internalType": "address",
          "name": "_acct",
          "type": "address"
        }
      ],
      "name": "CheckEmployeeVested",
      "outputs": [
        {
          "internalType": "bool",
          "name": "",
          "type": "bool"
        }
      ],
      "stateMutability": "nonpayable",
      "type": "function"
    },
    {
      "inputs": [
        {
          "internalType": "address",
          "name": "_acct",
          "type": "address"
        }
      ],
      "name": "GetName",
      "outputs": [
        {
          "internalType": "string",
          "name": "",
          "type": "string"
        }
      ],
      "stateMutability": "view",
      "type": "function"
    },
    {
      "inputs": [
        {
          "internalType": "address",
          "name": "_acct",
          "type": "address"
        }
      ],
      "name": "GetStartDate",
      "outputs": [
        {
          "internalType": "uint256",
          "name": "",
          "type": "uint256"
        }
      ],
      "stateMutability": "view",
      "type": "function"
    },
    {
      "inputs": [
        {
          "internalType": "address",
          "name": "_acct",
          "type": "address"
        }
      ],
      "name": "DaysEmployeed",
      "outputs": [
        {
          "internalType": "uint256",
          "name": "",
          "type": "uint256"
        }
      ],
      "stateMutability": "view",
      "type": "function"
    },
    {
      "inputs": [
        {
          "internalType": "address",
          "name": "_acct",
          "type": "address"
        }
      ],
      "name": "IsVested",
      "outputs": [
        {
          "internalType": "bool",
          "name": "",
          "type": "bool"
        }
      ],
      "stateMutability": "view",
      "type": "function"
    },
    {
      "inputs": [
        {
          "internalType": "address",
          "name": "_acct",
          "type": "address"
        }
      ],
      "name": "ProportionVested",
      "outputs": [
        {
          "internalType": "uint256",
          "name": "",
          "type": "uint256"
        }
      ],
      "stateMutability": "view",
      "type": "function"
    }
  ],
  "bytecode": "0x60806040523480156200001157600080fd5b5060405162002464380380620024648339818101604052810190620000379190620000be565b336000806101000a81548173ffffffffffffffffffffffffffffffffffffffff021916908373ffffffffffffffffffffffffffffffffffffffff16021790555081600181905550600081141562000097576105b56002819055506200009f565b806002819055505b505062000123565b600081519050620000b88162000109565b92915050565b60008060408385031215620000d257600080fd5b6000620000e285828601620000a7565b9250506020620000f585828601620000a7565b9150509250929050565b6000819050919050565b6200011481620000ff565b81146200012057600080fd5b50565b61233180620001336000396000f3fe608060405234801561001057600080fd5b50600436106100a95760003560e01c80638fdefc3d116100715780638fdefc3d1461018c5780639053d925146101bc578063ba7b673d146101ec578063d3a72ea11461021c578063e49cada11461024c578063f96f45041461027c576100a9565b8063124cfdd4146100ae5780631e52a4e9146100de5780635fb5ed9e1461010e57806364b13da41461012c5780637f91d4da1461015c575b600080fd5b6100c860048036038101906100c39190611c18565b6102ac565b6040516100d59190611ee0565b60405180910390f35b6100f860048036038101906100f39190611c18565b6103fc565b6040516101059190611ee0565b60405180910390f35b610116610777565b6040516101239190611fed565b60405180910390f35b61014660048036038101906101419190611c18565b610781565b6040516101539190611fed565b60405180910390f35b61017660048036038101906101719190611c18565b610976565b6040516101839190611fed565b60405180910390f35b6101a660048036038101906101a19190611c18565b610aec565b6040516101b39190611ee0565b60405180910390f35b6101d660048036038101906101d19190611c18565b610e02565b6040516101e39190611fed565b60405180910390f35b61020660048036038101906102019190611ca8565b610ffa565b6040516102139190611ee0565b60405180910390f35b61023660048036038101906102319190611c18565b61139a565b6040516102439190611efb565b60405180910390f35b61026660048036038101906102619190611c18565b61151e565b6040516102739190611ee0565b60405180910390f35b61029660048036038101906102919190611c41565b6116f7565b6040516102a39190611ee0565b60405180910390f35b60008060009054906101000a900473ffffffffffffffffffffffffffffffffffffffff1673ffffffffffffffffffffffffffffffffffffffff163373ffffffffffffffffffffffffffffffffffffffff161461033d576040517f08c379a000000000000000000000000000000000000000000000000000000000815260040161033490611f8d565b60405180910390fd5b6103468261151e565b156103a3578173ffffffffffffffffffffffffffffffffffffffff167f463708b9596833c91981de0a8bac5da83622de7662c8867e2e3c40edd537508260016040516103929190611ee0565b60405180910390a2600190506103f7565b8173ffffffffffffffffffffffffffffffffffffffff167f463708b9596833c91981de0a8bac5da83622de7662c8867e2e3c40edd537508260006040516103ea9190611ee0565b60405180910390a2600090505b919050565b60008060009054906101000a900473ffffffffffffffffffffffffffffffffffffffff1673ffffffffffffffffffffffffffffffffffffffff163373ffffffffffffffffffffffffffffffffffffffff161461048d576040517f08c379a000000000000000000000000000000000000000000000000000000000815260040161048490611f8d565b60405180910390fd5b6104968261151e565b156104f3578173ffffffffffffffffffffffffffffffffffffffff167f2f1d340c56434029874a8acc9099d5330021dfb3d91a056c8cf3dd3a33449b9560016040516104e29190611ee0565b60405180910390a260019050610772565b6104fb611aa7565b600360008473ffffffffffffffffffffffffffffffffffffffff1673ffffffffffffffffffffffffffffffffffffffff1681526020019081526020016000206040518060c0016040529081600082018054610555906121ce565b80601f0160208091040260200160405190810160405280929190818152602001828054610581906121ce565b80156105ce5780601f106105a3576101008083540402835291602001916105ce565b820191906000526020600020905b8154815290600101906020018083116105b157829003601f168201915b5050505050815260200160018201548152602001600282015481526020016003820160009054906101000a900460ff161515151581526020016003820160019054906101000a900460ff161515151581526020016003820160029054906101000a900460ff1615151515815250509050600081604001818152505080600360008573ffffffffffffffffffffffffffffffffffffffff1673ffffffffffffffffffffffffffffffffffffffff16815260200190815260200160002060008201518160000190805190602001906106a5929190611ae3565b50602082015181600101556040820151816002015560608201518160030160006101000a81548160ff02191690831515021790555060808201518160030160016101000a81548160ff02191690831515021790555060a08201518160030160026101000a81548160ff0219169083151502179055509050508273ffffffffffffffffffffffffffffffffffffffff167f2f1d340c56434029874a8acc9099d5330021dfb3d91a056c8cf3dd3a33449b9560006040516107649190611ee0565b60405180910390a260009150505b919050565b6000600254905090565b600061078b611aa7565b600360008473ffffffffffffffffffffffffffffffffffffffff1673ffffffffffffffffffffffffffffffffffffffff1681526020019081526020016000206040518060c00160405290816000820180546107e5906121ce565b80601f0160208091040260200160405190810160405280929190818152602001828054610811906121ce565b801561085e5780601f106108335761010080835404028352916020019161085e565b820191906000526020600020905b81548152906001019060200180831161084157829003601f168201915b5050505050815260200160018201548152602001600282015481526020016003820160009054906101000a900460ff161515151581526020016003820160019054906101000a900460ff161515151581526020016003820160029054906101000a900460ff1615151515815250509050600115158160a00151151514610919576040517f08c379a000000000000000000000000000000000000000000000000000000000815260040161091090611fad565b60405180910390fd5b600115158160a001511515141561096b5760006018603c808460200151426109419190612110565b61094b9190612085565b6109559190612085565b61095f9190612085565b90508092505050610971565b60009150505b919050565b6000610980611aa7565b600360008473ffffffffffffffffffffffffffffffffffffffff1673ffffffffffffffffffffffffffffffffffffffff1681526020019081526020016000206040518060c00160405290816000820180546109da906121ce565b80601f0160208091040260200160405190810160405280929190818152602001828054610a06906121ce565b8015610a535780601f10610a2857610100808354040283529160200191610a53565b820191906000526020600020905b815481529060010190602001808311610a3657829003601f168201915b5050505050815260200160018201548152602001600282015481526020016003820160009054906101000a900460ff161515151581526020016003820160019054906101000a900460ff161515151581526020016003820160029054906101000a900460ff1615151515815250509050600115158160a0015115151415610ae1578060200151915050610ae7565b60009150505b919050565b60008060009054906101000a900473ffffffffffffffffffffffffffffffffffffffff1673ffffffffffffffffffffffffffffffffffffffff163373ffffffffffffffffffffffffffffffffffffffff1614610b7d576040517f08c379a0000000000000000000000000000000000000000000000000000000008152600401610b7490611f8d565b60405180910390fd5b610b85611aa7565b600360008473ffffffffffffffffffffffffffffffffffffffff1673ffffffffffffffffffffffffffffffffffffffff1681526020019081526020016000206040518060c0016040529081600082018054610bdf906121ce565b80601f0160208091040260200160405190810160405280929190818152602001828054610c0b906121ce565b8015610c585780601f10610c2d57610100808354040283529160200191610c58565b820191906000526020600020905b815481529060010190602001808311610c3b57829003601f168201915b5050505050815260200160018201548152602001600282015481526020016003820160009054906101000a900460ff161515151581526020016003820160019054906101000a900460ff161515151581526020016003820160029054906101000a900460ff1615151515815250509050600115158160a00151151514610d13576040517f08c379a0000000000000000000000000000000000000000000000000000000008152600401610d0a90611fcd565b60405180910390fd5b600181606001901515908115158152505080600360008573ffffffffffffffffffffffffffffffffffffffff1673ffffffffffffffffffffffffffffffffffffffff1681526020019081526020016000206000820151816000019080519060200190610d80929190611ae3565b50602082015181600101556040820151816002015560608201518160030160006101000a81548160ff02191690831515021790555060808201518160030160016101000a81548160ff02191690831515021790555060a08201518160030160026101000a81548160ff0219169083151502179055509050506001915050919050565b6000610e0c611aa7565b600360008473ffffffffffffffffffffffffffffffffffffffff1673ffffffffffffffffffffffffffffffffffffffff1681526020019081526020016000206040518060c0016040529081600082018054610e66906121ce565b80601f0160208091040260200160405190810160405280929190818152602001828054610e92906121ce565b8015610edf5780601f10610eb457610100808354040283529160200191610edf565b820191906000526020600020905b815481529060010190602001808311610ec257829003601f168201915b5050505050815260200160018201548152602001600282015481526020016003820160009054906101000a900460ff161515151581526020016003820160019054906101000a900460ff161515151581526020016003820160029054906101000a900460ff16151515158152505090506000610f5a84610781565b90506002548110610fa35760006001548360400151610f7991906120b6565b9050620f424081610f8a9190612085565b9050606481610f999190612085565b9350505050610ff5565b60006001548360400151610fb791906120b6565b905060025481610fc79190612085565b90506064620f42408284610fdb91906120b6565b610fe59190612085565b610fef9190612085565b93505050505b919050565b60008060009054906101000a900473ffffffffffffffffffffffffffffffffffffffff1673ffffffffffffffffffffffffffffffffffffffff163373ffffffffffffffffffffffffffffffffffffffff161461108b576040517f08c379a000000000000000000000000000000000000000000000000000000000815260040161108290611f8d565b60405180910390fd5b611093611aa7565b600360008773ffffffffffffffffffffffffffffffffffffffff1673ffffffffffffffffffffffffffffffffffffffff1681526020019081526020016000206040518060c00160405290816000820180546110ed906121ce565b80601f0160208091040260200160405190810160405280929190818152602001828054611119906121ce565b80156111665780601f1061113b57610100808354040283529160200191611166565b820191906000526020600020905b81548152906001019060200180831161114957829003601f168201915b5050505050815260200160018201548152602001600282015481526020016003820160009054906101000a900460ff161515151581526020016003820160019054906101000a900460ff161515151581526020016003820160029054906101000a900460ff1615151515815250509050600015158160a00151151514611221576040517f08c379a000000000000000000000000000000000000000000000000000000000815260040161121890611f4d565b60405180910390fd5b611229611aa7565b8581600001819052508381602001818152505084816040018181525050600081606001901515908115158152505060018160a001901515908115158152505080600360008973ffffffffffffffffffffffffffffffffffffffff1673ffffffffffffffffffffffffffffffffffffffff16815260200190815260200160002060008201518160000190805190602001906112c4929190611ae3565b50602082015181600101556040820151816002015560608201518160030160006101000a81548160ff02191690831515021790555060808201518160030160016101000a81548160ff02191690831515021790555060a08201518160030160026101000a81548160ff0219169083151502179055509050508673ffffffffffffffffffffffffffffffffffffffff167fd60d97e0dcb91a0b36044d5194779610ea660bdd36d94cf3e002eb50b505a7d78786604051611384929190611f1d565b60405180910390a2600192505050949350505050565b60606113a4611aa7565b6060604051806020016040528060008152509050600360008573ffffffffffffffffffffffffffffffffffffffff1673ffffffffffffffffffffffffffffffffffffffff1681526020019081526020016000206040518060c0016040529081600082018054611412906121ce565b80601f016020809104026020016040519081016040528092919081815260200182805461143e906121ce565b801561148b5780601f106114605761010080835404028352916020019161148b565b820191906000526020600020905b81548152906001019060200180831161146e57829003601f168201915b5050505050815260200160018201548152602001600282015481526020016003820160009054906101000a900460ff161515151581526020016003820160019054906101000a900460ff161515151581526020016003820160029054906101000a900460ff1615151515815250509150600115158260a001511515141561151457816000015190505b8092505050919050565b6000611528611aa7565b600360008473ffffffffffffffffffffffffffffffffffffffff1673ffffffffffffffffffffffffffffffffffffffff1681526020019081526020016000206040518060c0016040529081600082018054611582906121ce565b80601f01602080910402602001604051908101604052809291908181526020018280546115ae906121ce565b80156115fb5780601f106115d0576101008083540402835291602001916115fb565b820191906000526020600020905b8154815290600101906020018083116115de57829003601f168201915b5050505050815260200160018201548152602001600282015481526020016003820160009054906101000a900460ff161515151581526020016003820160019054906101000a900460ff161515151581526020016003820160029054906101000a900460ff1615151515815250509050600115158160a001511515146116b6576040517f08c379a00000000000000000000000000000000000000000000000000000000081526004016116ad90611f6d565b60405180910390fd5b8060600151156116ca5760019150506116f2565b60006116d584610781565b905060025481106116eb576001925050506116f2565b6000925050505b919050565b60008060009054906101000a900473ffffffffffffffffffffffffffffffffffffffff1673ffffffffffffffffffffffffffffffffffffffff163373ffffffffffffffffffffffffffffffffffffffff1614611788576040517f08c379a000000000000000000000000000000000000000000000000000000000815260040161177f90611f8d565b60405180910390fd5b611790611aa7565b600360008673ffffffffffffffffffffffffffffffffffffffff1673ffffffffffffffffffffffffffffffffffffffff1681526020019081526020016000206040518060c00160405290816000820180546117ea906121ce565b80601f0160208091040260200160405190810160405280929190818152602001828054611816906121ce565b80156118635780601f1061183857610100808354040283529160200191611863565b820191906000526020600020905b81548152906001019060200180831161184657829003601f168201915b5050505050815260200160018201548152602001600282015481526020016003820160009054906101000a900460ff161515151581526020016003820160019054906101000a900460ff161515151581526020016003820160029054906101000a900460ff1615151515815250509050600015158160a0015115151461191e576040517f08c379a000000000000000000000000000000000000000000000000000000000815260040161191590611f4d565b60405180910390fd5b611926611aa7565b84816000018190525042816020018181525050838160400181815250506000816060019015159081151581525050600081608001901515908115158152505060018160a001901515908115158152505080600360008873ffffffffffffffffffffffffffffffffffffffff1673ffffffffffffffffffffffffffffffffffffffff16815260200190815260200160002060008201518160000190805190602001906119d2929190611ae3565b50602082015181600101556040820151816002015560608201518160030160006101000a81548160ff02191690831515021790555060808201518160030160016101000a81548160ff02191690831515021790555060a08201518160030160026101000a81548160ff0219169083151502179055509050508573ffffffffffffffffffffffffffffffffffffffff167fd60d97e0dcb91a0b36044d5194779610ea660bdd36d94cf3e002eb50b505a7d78642604051611a92929190611f1d565b60405180910390a26001925050509392505050565b6040518060c001604052806060815260200160008152602001600081526020016000151581526020016000151581526020016000151581525090565b828054611aef906121ce565b90600052602060002090601f016020900481019282611b115760008555611b58565b82601f10611b2a57805160ff1916838001178555611b58565b82800160010185558215611b58579182015b82811115611b57578251825591602001919060010190611b3c565b5b509050611b659190611b69565b5090565b5b80821115611b82576000816000905550600101611b6a565b5090565b6000611b99611b9484612039565b612008565b905082815260208101848484011115611bb157600080fd5b611bbc84828561218c565b509392505050565b600081359050611bd3816122cd565b92915050565b600082601f830112611bea57600080fd5b8135611bfa848260208601611b86565b91505092915050565b600081359050611c12816122e4565b92915050565b600060208284031215611c2a57600080fd5b6000611c3884828501611bc4565b91505092915050565b600080600060608486031215611c5657600080fd5b6000611c6486828701611bc4565b935050602084013567ffffffffffffffff811115611c8157600080fd5b611c8d86828701611bd9565b9250506040611c9e86828701611c03565b9150509250925092565b60008060008060808587031215611cbe57600080fd5b6000611ccc87828801611bc4565b945050602085013567ffffffffffffffff811115611ce957600080fd5b611cf587828801611bd9565b9350506040611d0687828801611c03565b9250506060611d1787828801611c03565b91505092959194509250565b611d2c81612156565b82525050565b6000611d3d82612069565b611d478185612074565b9350611d5781856020860161219b565b611d60816122bc565b840191505092915050565b6000611d78601883612074565b91507f456d706c6f79656520616c7265616479206578697374732e00000000000000006000830152602082019050919050565b6000611db8601a83612074565b91507f452d3231323a20456d706c6f796565206e6f7420666f756e642e0000000000006000830152602082019050919050565b6000611df8602983612074565b91507f43616e206f6e6c792062652063616c6c65642062792074686520636f6e74726160008301527f6374206f776e65722e00000000000000000000000000000000000000000000006020830152604082019050919050565b6000611e5e601a83612074565b91507f452d3139373a20456d706c6f796565206e6f7420666f756e642e0000000000006000830152602082019050919050565b6000611e9e601a83612074565b91507f452d3132383a20456d706c6f796565206e6f7420666f756e642e0000000000006000830152602082019050919050565b611eda81612182565b82525050565b6000602082019050611ef56000830184611d23565b92915050565b60006020820190508181036000830152611f158184611d32565b905092915050565b60006040820190508181036000830152611f378185611d32565b9050611f466020830184611ed1565b9392505050565b60006020820190508181036000830152611f6681611d6b565b9050919050565b60006020820190508181036000830152611f8681611dab565b9050919050565b60006020820190508181036000830152611fa681611deb565b9050919050565b60006020820190508181036000830152611fc681611e51565b9050919050565b60006020820190508181036000830152611fe681611e91565b9050919050565b60006020820190506120026000830184611ed1565b92915050565b6000604051905081810181811067ffffffffffffffff8211171561202f5761202e61228d565b5b8060405250919050565b600067ffffffffffffffff8211156120545761205361228d565b5b601f19601f8301169050602081019050919050565b600081519050919050565b600082825260208201905092915050565b600061209082612182565b915061209b83612182565b9250826120ab576120aa61222f565b5b828204905092915050565b60006120c182612182565b91506120cc83612182565b9250817fffffffffffffffffffffffffffffffffffffffffffffffffffffffffffffffff048311821515161561210557612104612200565b5b828202905092915050565b600061211b82612182565b915061212683612182565b92508282101561213957612138612200565b5b828203905092915050565b600061214f82612162565b9050919050565b60008115159050919050565b600073ffffffffffffffffffffffffffffffffffffffff82169050919050565b6000819050919050565b82818337600083830152505050565b60005b838110156121b957808201518184015260208101905061219e565b838111156121c8576000848401525b50505050565b600060028204905060018216806121e657607f821691505b602082108114156121fa576121f961225e565b5b50919050565b7f4e487b7100000000000000000000000000000000000000000000000000000000600052601160045260246000fd5b7f4e487b7100000000000000000000000000000000000000000000000000000000600052601260045260246000fd5b7f4e487b7100000000000000000000000000000000000000000000000000000000600052602260045260246000fd5b7f4e487b7100000000000000000000000000000000000000000000000000000000600052604160045260246000fd5b6000601f19601f8301169050919050565b6122d681612144565b81146122e157600080fd5b50565b6122ed81612182565b81146122f857600080fd5b5056fea26469706673582212209cfa2fc60c2dd422c8c1650ec9b2a281704f88beb10d77b50a4e1f286f385bea64736f6c63430008000033",
  "immutableReferences": {},
  "source": "// SPDX-License-Identifier: MIT\npragma solidity >=0.5.0 <=0.9.0;\n\n// import \"@openzeppelin/contracts/token/ERC20/ERC20.sol\";\n\n/**\n * @title EmployeeVest\n * @dev Combining a simple ERC20 token with an employee vesting plan.\n * \n * Employees are vested for ownership over a 4 year period.  This is\n * done on a per-day basis.   If the employee leaves the company before\n * the 4 years they loose all vested tokens.\n * \n * Each employee gets a percentage of ownership (1/4th pect, 1/2pct).\n */\ncontract InsEmployeeVest {\n\n\tstruct Employee { \n\t\tstring name;\n\t\tuint256 startdate;\n\t\tuint256 pctToVest;\n\t\tbool isVested;\n\t\tbool isTransfered;\n\t\tbool found;\n\t}\n\n    address private ownerAddress;\n    uint256 ntoken;\n    uint256 daysToVest;\n    mapping (address => Employee) internal vesting;\n\n\tevent EmployeeRegistered ( address indexed employeeAddr, string name, uint256 startDate );\n\tevent EmployeeFullyVested ( address indexed employeeAddr, bool isVested );\n\tevent EmployeeSeparated ( address indexed employeeAddr, bool isVested );\n\n\tmodifier onlyOwner() {\n\t\trequire(msg.sender == ownerAddress, \"Can only be called by the contract owner.\");\n\t\t_;\n\t}\n\n\n    /**\n     * @dev Constructor that saves msg.sender (owner), total tokens and vesting time \n\t * with a default vesting of 4 years if _daysToVest is passed as 0.\n\t * @param _ntoken number of tokens to mint.\n\t * @param _daysToVest number days before employee is considered vested.\n     */\n    constructor(uint256 _ntoken, uint256 _daysToVest) {\n        ownerAddress = msg.sender;\n\t\tntoken = _ntoken;\n\t\tif ( _daysToVest == 0 ) {\n\t\t\tdaysToVest = 365 + 365 + 365 + 366;\t// 4 years\n\t\t} else {\n\t\t\tdaysToVest = _daysToVest;\n\t\t}\n    }\n\n    /**\n     * @dev GetDaysToVest\n\t * returns the number of days the contract is set to vest in.\n     */\n\tfunction GetDaysToVest() public view returns(uint256) {\n\t\treturn(daysToVest);\n\t}\n\n    /**\n     * @dev StartVest is called when an employee starts and sets the beiginning date\n\t * to the current block number time.\n\t * @param _acct the employees ethereum account number.\n\t * @param _name the employees name.\n\t * @param _tvest the percentage times 1 million of the stock that the employee receives.\n     */\n\tfunction StartVest(address _acct, string memory _name, uint256 _tvest) public onlyOwner returns(bool) {\t\n\t\tEmployee memory f;\n\t\tf = vesting[_acct];\n\t\trequire(f.found == false, \"Employee already exists.\");\n\t\tEmployee memory e;\n\t\te.name = _name;\n\t\te.startdate = block.timestamp;\n\t\te.pctToVest = _tvest;\n\t\te.isVested = false;\n\t\te.isTransfered = false;\n\t\te.found = true;\n\t\tvesting[_acct] = e;\n\t\temit EmployeeRegistered ( _acct, _name, block.timestamp );\n\t\treturn(true);\n\t}\n\n    /**\n     * @dev StartVestDate is called when an employee starts and sets the beiginning date\n\t * to the current block number time.\n\t * @param _acct the employees ethereum account number.\n\t * @param _name the employees name.\n\t * @param _tvest the percentage times 1 million of the stock that the employee receives.\n\t * @param _startDate the date that the employee was hired on in unix timestamp format.  Seconds since 1970.\n     */\n\tfunction StartVestDate(address _acct, string memory _name, uint256 _tvest, uint256 _startDate) public onlyOwner returns(bool) {\t\n\t\tEmployee memory f;\n\t\tf = vesting[_acct];\n\t\trequire(f.found == false, \"Employee already exists.\");\n\t\tEmployee memory e;\n\t\te.name = _name;\n\t\te.startdate = _startDate;\n\t\te.pctToVest = _tvest;\n\t\te.isVested = false;\n\t\te.found = true;\n\t\tvesting[_acct] = e;\n\t\temit EmployeeRegistered ( _acct, _name, _startDate );\n\t\treturn(true);\n\t}\n\n\n    /**\n     * @dev SetEmployeeVested marks an employee as being vested.  This is usually for founders of the company.\n\t * @param _acct the employees ethereum account number.\n     */\n\tfunction SetEmployeeVested (address _acct) public onlyOwner returns(bool) {\n\t\tEmployee memory f;\n\t\tf = vesting[_acct];\n\t\trequire(f.found == true, \"E-128: Employee not found.\");\n\t\tf.isVested = true;\n\t\tvesting[_acct] = f;\n\t\treturn(true);\n\t}\n\n    /**\n     * @dev EmployeeSeparation Employee leaves the company.  If employee is not vested\n\t * then all stock (tokens) are lost.\n\t * @param _acct the employees ethereum account number.\n     */\n\tfunction EmployeeSeparation (address _acct) public onlyOwner returns(bool) {\n\t\tif ( IsVested(_acct) ) {\n\t\t\temit EmployeeSeparated ( _acct, true );\n\t\t\treturn (true);\n\t\t} else {\n\t\t\tEmployee memory f;\n\t\t\tf = vesting[_acct];\n\t\t\tf.pctToVest = 0;\t\t// No longer an employee.\n\t\t\tvesting[_acct] = f;\n\t\t\temit EmployeeSeparated ( _acct, false );\n\t\t\treturn (false);\n\t\t}\n\t}\n\n    /**\n     * @dev CheckEmployeeVested Return true if the employee is vested.\n\t * @param _acct the employees ethereum account number.\n     */\n\tfunction CheckEmployeeVested(address _acct) public onlyOwner returns(bool) {\n\t\tif ( IsVested(_acct) ) {\n\t\t\t// ERC777 - call\n\t\t\t// Should transfer tokens to employee at this point.\n\t\t\t// Set e.isTransfered = true; // and update data.\n\t\t\temit EmployeeFullyVested ( _acct, true );\n\t\t\treturn (true);\n\t\t} else {\n\t\t\temit EmployeeFullyVested ( _acct, false );\n\t\t\treturn (false);\n\t\t}\n\t}\n\t\n    /**\n     * @dev GetName - return the name of the employee.\n\t * @param _acct the employees ethereum account number.\n     */\n\tfunction GetName(address _acct) public view returns(string memory) {\n\t\tEmployee memory f;\n\t\tstring memory name;\n\t\tname = \"\";\n\t\tf = vesting[_acct];\n\t\tif ( f.found == true ) {\n\t\t\tname = f.name;\n\t\t}\n\t\treturn(name);\n\t}\n\n    /**\n     * @dev GetStartDate return the start date in unix timesamp format.\n\t * @param _acct the employees ethereum account number.\n     */\n\tfunction GetStartDate(address _acct) public view returns(uint256) {\n\t\tEmployee memory f;\n\t\tf = vesting[_acct];\n\t\tif ( f.found == true ) {\n\t\t\treturn(f.startdate);\n\t\t}\n\t\treturn(0);\n\t}\n\n    /**\n     * @dev DaysEmployeed Calculate number of days emploeed.\n\t * @param _acct the employees ethereum account number.\n     */\n\tfunction DaysEmployeed(address _acct) public view returns(uint256) {\n\t\tEmployee memory f;\n\t\tf = vesting[_acct];\n\t\trequire(f.found == true, \"E-197: Employee not found.\");\n\t\tif ( f.found == true ) {\n\t\t\tuint256 diff = (block.timestamp - f.startdate) / 60 / 60 / 24; \n\t\t\treturn (diff);\n\t\t}\n\t\treturn(0);\n\t}\n\n    /**\n     * @dev IsVested returns true if employee is fully vested.\n\t * @param _acct the employees ethereum account number.\n     */\n\tfunction IsVested(address _acct) public view returns(bool) {\n\t\tEmployee memory f;\n\t\tf = vesting[_acct];\n\t\trequire(f.found == true, \"E-212: Employee not found.\");\n\t\tif ( f.isVested ) {\n\t\t\treturn (true);\n\t\t}\n\t\tuint256 dv = DaysEmployeed(_acct);\n\t\tif ( dv >= daysToVest ) {\n\t\t\treturn (true);\n\t\t}\n\t\treturn (false);\n\t}\n\n    /**\n     * @dev ProportionVested returns the current proprtion of vesting that the employee has in number of tokens.\n\t * @param _acct the employees ethereum account number.\n     */\n\tfunction ProportionVested(address _acct) public view returns(uint256) {\n\t\tEmployee memory f;\n\t\tf = vesting[_acct];\n\t\tuint256 dv = DaysEmployeed(_acct);\n\t\tif ( dv >= daysToVest ) {\n\t\t\tuint256 pd0 = ( f.pctToVest * ntoken );\n\t\t\tpd0 = pd0 / 1000000;\n\t\t\treturn ( pd0 / 100 );\n\t\t}\n\t\tuint256 pd = ( f.pctToVest * ntoken );\n\t\t// pd = pd / 1000000;\n\t\tpd = pd / daysToVest;\n\t\t// Suppose that an employee gets 0.25%, as a decimal this is 0.0025.\n\t\t// Multiply by Stock at issue of company, 10 million.\n\t\t//        Pct                * TotalStock \n\t\t// a = ( 0.0025 * 1000000 ) * 10000000 = \t25,000,000,000\n\t\t// a /= 1,000,000                            // Take back out the multiplier for the PCT \n\t\t// a                                         // is now # of shares vested over 4 years\n\t\t// a / 4y\n\t\t// Devides are saved till the end so accuracy is not lost.\n\t\treturn ( ( ( dv * pd ) / 1000000 ) / 100 ) ;\n\t}\n\t\n}\n\n",
  "sourcePath": "/home/pschlump/Projects/Paper-Blockchain-in-PostgreSQL/pub_sub/contracts/InsEmployeeVest.sol",
  "compiler": {
    "name": "solc",
    "version": "0.8.0+commit.c7dfd78e.Emscripten.clang"
  },
  "schemaVersion": "3.3.4",
  "updatedAt": "2021-04-19T19:01:57.196Z",
  "devdoc": {
    "details": "Combining a simple ERC20 token with an employee vesting plan.  Employees are vested for ownership over a 4 year period.  This is done on a per-day basis.   If the employee leaves the company before the 4 years they loose all vested tokens.  Each employee gets a percentage of ownership (1/4th pect, 1/2pct).",
    "kind": "dev",
    "methods": {
      "CheckEmployeeVested(address)": {
        "details": "CheckEmployeeVested Return true if the employee is vested.",
        "params": {
          "_acct": "the employees ethereum account number."
        }
      },
      "DaysEmployeed(address)": {
        "details": "DaysEmployeed Calculate number of days emploeed.",
        "params": {
          "_acct": "the employees ethereum account number."
        }
      },
      "EmployeeSeparation(address)": {
        "details": "EmployeeSeparation Employee leaves the company.  If employee is not vested then all stock (tokens) are lost.",
        "params": {
          "_acct": "the employees ethereum account number."
        }
      },
      "GetDaysToVest()": {
        "details": "GetDaysToVest returns the number of days the contract is set to vest in."
      },
      "GetName(address)": {
        "details": "GetName - return the name of the employee.",
        "params": {
          "_acct": "the employees ethereum account number."
        }
      },
      "GetStartDate(address)": {
        "details": "GetStartDate return the start date in unix timesamp format.",
        "params": {
          "_acct": "the employees ethereum account number."
        }
      },
      "IsVested(address)": {
        "details": "IsVested returns true if employee is fully vested.",
        "params": {
          "_acct": "the employees ethereum account number."
        }
      },
      "ProportionVested(address)": {
        "details": "ProportionVested returns the current proprtion of vesting that the employee has in number of tokens.",
        "params": {
          "_acct": "the employees ethereum account number."
        }
      },
      "SetEmployeeVested(address)": {
        "details": "SetEmployeeVested marks an employee as being vested.  This is usually for founders of the company.",
        "params": {
          "_acct": "the employees ethereum account number."
        }
      },
      "StartVest(address,string,uint256)": {
        "details": "StartVest is called when an employee starts and sets the beiginning date to the current block number time.",
        "params": {
          "_acct": "the employees ethereum account number.",
          "_name": "the employees name.",
          "_tvest": "the percentage times 1 million of the stock that the employee receives."
        }
      },
      "StartVestDate(address,string,uint256,uint256)": {
        "details": "StartVestDate is called when an employee starts and sets the beiginning date to the current block number time.",
        "params": {
          "_acct": "the employees ethereum account number.",
          "_name": "the employees name.",
          "_startDate": "the date that the employee was hired on in unix timestamp format.  Seconds since 1970.",
          "_tvest": "the percentage times 1 million of the stock that the employee receives."
        }
      },
      "constructor": {
        "details": "Constructor that saves msg.sender (owner), total tokens and vesting time  with a default vesting of 4 years if _daysToVest is passed as 0.",
        "params": {
          "_daysToVest": "number days before employee is considered vested.",
          "_ntoken": "number of tokens to mint."
        }
      }
    },
    "title": "EmployeeVest",
    "version": 1
  },
  "userdoc": {
    "kind": "user",
    "methods": {},
    "version": 1
  }
}