{
  "contractName": "InsLogEvent",
  "abi": [
    {
      "inputs": [],
      "stateMutability": "nonpayable",
      "type": "constructor"
    },
    {
      "anonymous": false,
      "inputs": [
        {
          "indexed": true,
          "internalType": "address",
          "name": "account",
          "type": "address"
        },
        {
          "indexed": false,
          "internalType": "string",
          "name": "msg",
          "type": "string"
        }
      ],
      "name": "AnEvent",
      "type": "event"
    },
    {
      "stateMutability": "payable",
      "type": "fallback"
    },
    {
      "stateMutability": "payable",
      "type": "receive"
    },
    {
      "inputs": [
        {
          "internalType": "address payable",
          "name": "_newOwner",
          "type": "address"
        }
      ],
      "name": "changeOwner",
      "outputs": [],
      "stateMutability": "nonpayable",
      "type": "function"
    },
    {
      "inputs": [
        {
          "internalType": "address",
          "name": "_acct",
          "type": "address"
        },
        {
          "internalType": "string",
          "name": "_msg",
          "type": "string"
        }
      ],
      "name": "IndexedEvent",
      "outputs": [
        {
          "internalType": "bool",
          "name": "",
          "type": "bool"
        }
      ],
      "stateMutability": "nonpayable",
      "type": "function"
    },
    {
      "inputs": [
        {
          "internalType": "uint256",
          "name": "_amount",
          "type": "uint256"
        }
      ],
      "name": "withdraw",
      "outputs": [],
      "stateMutability": "nonpayable",
      "type": "function"
    },
    {
      "inputs": [],
      "name": "kill",
      "outputs": [],
      "stateMutability": "nonpayable",
      "type": "function"
    }
  ],
  "bytecode": "0x608060405234801561001057600080fd5b50336000806101000a81548173ffffffffffffffffffffffffffffffffffffffff021916908373ffffffffffffffffffffffffffffffffffffffff1602179055506107c2806100606000396000f3fe6080604052600436106100435760003560e01c80632e1a7d4d1461004c57806341c0e1b514610075578063a6f9dae11461008c578063bd20b5a9146100b55761004a565b3661004a57005b005b34801561005857600080fd5b50610073600480360381019061006e91906104e0565b6100f2565b005b34801561008157600080fd5b5061008a6101ea565b005b34801561009857600080fd5b506100b360048036038101906100ae9190610463565b610291565b005b3480156100c157600080fd5b506100dc60048036038101906100d7919061048c565b610362565b6040516100e99190610591565b60405180910390f35b60008054906101000a900473ffffffffffffffffffffffffffffffffffffffff1673ffffffffffffffffffffffffffffffffffffffff163373ffffffffffffffffffffffffffffffffffffffff1614610180576040517f08c379a0000000000000000000000000000000000000000000000000000000008152600401610177906105ce565b60405180910390fd5b60008054906101000a900473ffffffffffffffffffffffffffffffffffffffff1673ffffffffffffffffffffffffffffffffffffffff166108fc829081150290604051600060405180830381858888f193505050501580156101e6573d6000803e3d6000fd5b5050565b60008054906101000a900473ffffffffffffffffffffffffffffffffffffffff1673ffffffffffffffffffffffffffffffffffffffff163373ffffffffffffffffffffffffffffffffffffffff1614610278576040517f08c379a000000000000000000000000000000000000000000000000000000000815260040161026f906105ce565b60405180910390fd5b3373ffffffffffffffffffffffffffffffffffffffff16ff5b60008054906101000a900473ffffffffffffffffffffffffffffffffffffffff1673ffffffffffffffffffffffffffffffffffffffff163373ffffffffffffffffffffffffffffffffffffffff161461031f576040517f08c379a0000000000000000000000000000000000000000000000000000000008152600401610316906105ce565b60405180910390fd5b806000806101000a81548173ffffffffffffffffffffffffffffffffffffffff021916908373ffffffffffffffffffffffffffffffffffffffff16021790555050565b60008273ffffffffffffffffffffffffffffffffffffffff167fb3b0fc93288381e6fc61b2c0bcb321880c648c3ff65e8d8e313b881415b712a7836040516103aa91906105ac565b60405180910390a26001905092915050565b60006103cf6103ca8461061f565b6105ee565b9050828152602081018484840111156103e757600080fd5b6103f28482856106c5565b509392505050565b60008135905061040981610747565b92915050565b60008135905061041e8161075e565b92915050565b600082601f83011261043557600080fd5b81356104458482602086016103bc565b91505092915050565b60008135905061045d81610775565b92915050565b60006020828403121561047557600080fd5b60006104838482850161040f565b91505092915050565b6000806040838503121561049f57600080fd5b60006104ad858286016103fa565b925050602083013567ffffffffffffffff8111156104ca57600080fd5b6104d685828601610424565b9150509250929050565b6000602082840312156104f257600080fd5b60006105008482850161044e565b91505092915050565b6105128161068f565b82525050565b60006105238261064f565b61052d818561065a565b935061053d8185602086016106d4565b61054681610736565b840191505092915050565b600061055e60168361065a565b91507f53656e646572206e6f7420617574686f72697a65642e000000000000000000006000830152602082019050919050565b60006020820190506105a66000830184610509565b92915050565b600060208201905081810360008301526105c68184610518565b905092915050565b600060208201905081810360008301526105e781610551565b9050919050565b6000604051905081810181811067ffffffffffffffff8211171561061557610614610707565b5b8060405250919050565b600067ffffffffffffffff82111561063a57610639610707565b5b601f19601f8301169050602081019050919050565b600081519050919050565b600082825260208201905092915050565b60006106768261069b565b9050919050565b60006106888261069b565b9050919050565b60008115159050919050565b600073ffffffffffffffffffffffffffffffffffffffff82169050919050565b6000819050919050565b82818337600083830152505050565b60005b838110156106f25780820151818401526020810190506106d7565b83811115610701576000848401525b50505050565b7f4e487b7100000000000000000000000000000000000000000000000000000000600052604160045260246000fd5b6000601f19601f8301169050919050565b6107508161066b565b811461075b57600080fd5b50565b6107678161067d565b811461077257600080fd5b50565b61077e816106bb565b811461078957600080fd5b5056fea2646970667358221220b0ee61abd49c176c7739685471c7000e4a2b3fc3b4d1b55c9baa9f29f1091a7e64736f6c63430008000033",
  "immutableReferences": {},
  "source": "// SPDX-License-Identifier: MIT\npragma solidity >=0.6.0 <=0.9.0;\n\ncontract InsLogEvent {\n\n\taddress payable owner;\n\n\tevent AnEvent ( address indexed account, string msg );\n\n\tconstructor() {\n\t\towner = payable(msg.sender);\n\t}\n\n\tmodifier onlyOwner() {\n\t\trequire( msg.sender == owner, \"Sender not authorized.\");\n\t\t// Do not forget the \"_;\"! It will be replaced by the actual function\n\t\t// body when the modifier is used.\n\t\t_;\n\t}\n\n\t// Make `_newOwner` the new owner of this contract.\n\tfunction changeOwner(address payable _newOwner) public onlyOwner() {\n\t\towner = _newOwner;\n\t}\n\t\n\tfunction IndexedEvent ( address _acct, string memory _msg ) public returns ( bool ) {\n\t\t// TODO - emit event\n\t\temit AnEvent ( _acct, _msg );\n\t\treturn (true);\n\t}\n\n\t// This function is called for all messages sent to\n\t// this contract, except plain Ether transfers\n\t// (there is no other function except the receive function).\n\t// Any call with non-empty calldata to this contract will execute\n\t// the fallback function (even if Ether is sent along with the call).\n\tfallback() external payable {}\n\n\t// This function is called for plain Ether transfers, i.e.\n\t// for every call with empty calldata.\n\treceive() external payable {}\n\n\tfunction withdraw( uint256 _amount ) public onlyOwner() {\n\t\towner.transfer(_amount);\n\t}\n\n\t// destroy the contract and reclaim the leftover funds.\n    function kill() public onlyOwner() {\n\t\t//\tCalling selfdestruct(address) sends all of the contract's current balance to address.\n        selfdestruct(payable(msg.sender));\n    }\n}\n\n",
  "sourcePath": "/home/pschlump/Projects/Paper-Blockchain-in-PostgreSQL/pub_sub/contracts/InsLogEvent.sol",
  "compiler": {
    "name": "solc",
    "version": "0.8.0+commit.c7dfd78e.Emscripten.clang"
  },
  "schemaVersion": "3.3.4",
  "updatedAt": "2021-04-19T19:01:57.205Z",
  "devdoc": {
    "kind": "dev",
    "methods": {},
    "version": 1
  },
  "userdoc": {
    "kind": "user",
    "methods": {},
    "version": 1
  }
}